:020000040800F2
:100000000028002085340008CD340008550200087F
:10001000CD340008630200087102000800000000EF
:10002000000000000000000000000000C103000804
:10003000CD3400080000000051040008752A0008B3
:10004000CD340008CD340008CD340008CD3400088C
:10005000CD340008CD340008B5320008BB320008AA
:10006000C1320008C7320008CD320008CD34000884
:10007000CD340008CD340008CD340008CD3400085C
:10008000CD340008CD340008CD340008CD3400084C
:10009000CD340008CD340008CD340008D332000838
:1000A000CD3400080D1A0008CD340008211A0008CC
:1000B000251A0008391A000800000000CD34000895
:1000C000CD3400080000000000000000CD3400081E
:1000D00000000000F13100080932000800000000B3
:1000E000FB320008CD340008CD34000800000000C9
:1000F0000000000000000000000000000000000000
:0C01000000000000000000005FF808F1A3
:1001100010B5054C237833B9044B13B10448AFF341
:1001200000800123237010BD7C000020000000002F
:10013000203E000808B5034B1BB103490348AFF349
:10014000008008BD0000000080000020203E000864
:1001500008B50021C02003F0BBF90021C92003F03D
:10016000B7F90121C62003F0B3F90121122003F0F1
:10017000AFF9C02003F044FA01281BD1C62003F0D8
:100180003FFAB0FA80F14909C62003F0FFF9C9200F
:1001900003F036FA01280FD1122003F031FAB0FA39
:1001A00080F14909122003F0F1F94FF4967001F043
:1001B00033F8DEE70021E7E70021F3E707B5002386
:1001C00001220649CDE900230548802200F0AEFD5A
:1001D00003B05DF804EB00F0ADBE00BF383E000890
:1001E000510100087047000041F65832054B1B686A
:1001F000B3FBF2F3002243439A4200D1704700BFA1
:100200000132F9E72800002038B5044672B6012112
:10021000112003F05DF900250121112003F0B6F94A
:100220004FF49670FFF7E0FF0021112003F0AEF9C4
:1002300001354FF49670FFF7D7FFAC42ECD14FF485
:10024000FA60FFF7D1FFE6E7FFF7CCBF042008B55F
:10025000FFF7DAFF08B5FFF7F9FF052008B5FFF74C
:10026000D3FF08B5FFF7F9FF062008B5FFF7CCFF6D
:1002700008B5FFF7F9FF704708B501F0F7F8012856
:1002800003D0BDE8084000F005B908BDF8B50C463C
:10029000174907460B684BB9164A174B9B1A174A62
:1002A00022F003029B1A164A0B60136001F0DEF87D
:1002B00001280FBF6D46114B0F4D23F0030318BFEC
:1002C000ED1A00F083FE0F4B1E683219AA4207D9BF
:1002D0000C233B6000F02AFF4FF0FF363046F8BD9C
:1002E0001A60074A13681B1B136000F01FFFF5E735
:1002F00098000020180600200028002000040000BC
:100300009C00002000000020EFF305830BB900F0F3
:100310005DBE4FF0500383F31188BFF36F8FBFF3BF
:100320004F8FFEE700F002BF03F098BB03F09EBBC7
:1003300006480068006880F3088862B661B6BFF3BB
:100340004F8FBFF36F8F00DF00BF000008ED00E0AC
:10035000002382B001930D4B1B68013308D04FF08E
:10036000500383F31188BFF36F8FBFF34F8FFEE706
:100370004FF0500383F31188BFF36F8FBFF34F8F9C
:10038000019B002BFCD002B0704700BF040000208E
:100390004FF0807340F8043C054B21F0010140F818
:1003A000081C40F80C3C40F8202C4038704700BF37
:1003B00051030008000000000000000000000000E1
:1003C000074B19680868B0E8F00F80F30988BFF39D
:1003D0006F8F4FF0000080F311884EF00D0E7047C4
:1003E000100200204FF0500383F31188BFF36F8F8A
:1003F000BFF34F8F0A4A13680133012B13600ED1EC
:100400004FF0E023D3F8043DDBB243B14FF050038B
:1004100083F31188BFF36F8FBFF34F8FFEE77047F1
:1004200004000020084A136843B94FF0500383F3D7
:100430001188BFF36F8FBFF34F8FFEE7013B13604F
:100440000BB983F3118870470400002000000000FE
:10045000EFF30980BFF36F8F0D4B1A6820E9F00F9F
:1004600010602DE908404FF0500080F3118800F033
:10047000F7FE4FF0000080F31188BDE808401968CE
:100480000868B0E8F00F80F30988BFF36F8F7047FA
:100490001002002008B54FF0500383F31188BFF31A
:1004A0006F8FBFF34F8F00F09FFD28B14FF0E02317
:1004B0004FF08052C3F8042D002383F3118808BD48
:1004C0004FF0E02200234FF47A7113619361044BE3
:1004D0001B68B3FBF1F3013B5361072313617047C2
:1004E0002800002013B5274B1A78D2B20192FF22C0
:1004F0001A701B78244ADBB28DF803309DF8033064
:1005000003F0500313700723204A13609DF8030083
:10051000591E00060AD4032B11D04FF0500383F369
:100520001188BFF36F8FBFF34F8FFEE79DF8033045
:1005300011605B00DBB28DF803300B46E6E74FF449
:1005400040731360019B0F4ADBB213704FF0E0233E
:100550000024D3F8202D42F46002C3F8202DD3F8F4
:10056000202D42F06042C3F8202DFFF7A9FF084B71
:100570001C60FFF7DDFE00F073FE2046FFF7E8FE8B
:1005800002B010BD00E400E0A4000020A0000020A4
:1005900004000020EFF305830F2B0ED9114A9B5C5A
:1005A000114A12789A4208D94FF0500383F3118808
:1005B000BFF36F8FBFF34F8FFEE74FF0E0230B4A7F
:1005C000D3F80C3D126803F4E063934208D94FF06E
:1005D000500383F31188BFF36F8FBFF34F8FFEE794
:1005E000704700BFF0E300E0A4000020A00000205E
:1005F0004FF0FF3200F10803C0E9022343600361BA
:1006000000230360704700230361704743689A68C2
:100610004B608A6051609960036808610133036030
:10062000704730B50C68631C0AD103695A684A6088
:1006300091608B605960036808610133036030BDCD
:1006400000F10802134652681568A542FAD9EDE791
:100650000369D0E901128A6051605968814208BF7C
:100660005A60002202611A68013A1A6018687047DD
:1006700010B50446FFF7B6FEA46BFFF7D3FEB4FA3D
:1006800084F0400910BD70B51646026C0446856BB7
:1006900042B906689EB9806800F0F8FEA660013590
:1006A000A56370BD6EB9406803F014FB6368226CEB
:1006B0001344A2686360934224BF236863600020F0
:1006C000EDE7C06803F006FB226CE36851429B1A19
:1006D0002268E36093423EBFA3685B18E360022E8A
:1006E000EDD10DB1013DEAE72846D8E703461A6C83
:1006F000084610B45AB1DC68A1189C68D960A142C0
:1007000028BF196810BC28BFD96003F0E3BA10BC39
:10071000704770B50446FFF765FE94F8455004F144
:1007200024066DB2002D01DD636AB3B9FF2384F89E
:100730004530FFF777FEFFF755FE94F8445004F17B
:1007400010066DB2002D01DD23697BB9FF2384F80B
:100750004430BDE87040FFF765BE304600F0F6FD5E
:1007600008B100F07DFE013D6DB2DBE7304600F0E0
:10077000EDFD08B100F074FE013D6DB2E2E738B561
:100780000D46044640B94FF0500383F31188BFF380
:100790006F8FBFF34F8FFEE7FFF724FED4E90F31D1
:1007A0004B432268D0185B1AA060626000201A4494
:1007B000FF23A063E26084F8443084F84530A5B993
:1007C000236973B104F1100000F0C0FD48B14FF08F
:1007D000E0234FF08052C3F8042DBFF34F8FBFF3D7
:1007E0006F8FFFF71FFE012038BD04F11000FFF7E7
:1007F000FFFE04F12400FFF7FBFEF2E7F8B50D461B
:100800001746064640B94FF0500383F31188BFF3F3
:100810006F8FBFF34F8FFEE748435030FFF784FDE3
:10082000044658B165B100F1500301212046C4E9E6
:100830000F652360FFF7A3FF84F84C702046F8BDD6
:100840000346F2E72DE9FF410F461E46044601929A
:1008500040B94FF0500383F31188BFF36F8FBFF39C
:100860004F8FFEE751B9036C43B14FF0500383F350
:100870001188BFF36F8FBFF34F8FFEE7022E0BD1AE
:10088000E36B012B08D04FF0500383F31188BFF3C3
:100890006F8FBFF34F8FFEE700F0E8FD054650B9BC
:1008A000019B4BB14FF0500383F31188BFF36F8F5F
:1008B000BFF34F8FFEE700254FF0000839E0022E0E
:1008C0003DD0019B1BB9FFF7ADFD002050E015B9ED
:1008D00002A800F07DFDFFF7A5FD00F077FBFFF714
:1008E00081FD94F84430FF2B08BF84F8448094F8CD
:1008F0004530FF2B08BF84F84580FFF793FD01A921
:1009000002A800F071FD002848D1FFF76BFDA26B33
:10091000E36B9A422FD1FFF785FD019904F1100096
:1009200000F0DAFC2046FFF7F4FE00F0FFFB50B3C6
:100930000125FFF757FDA26BE36B9A42BFD2324607
:1009400039462046FFF79FFE636A1BB104F124007D
:1009500000F0FCFC48B14FF0E0234FF08052C3F8A8
:10096000042DBFF34F8FBFF36F8FFFF75BFD0120A7
:1009700004B0BDE8F081FFF755FD2046FFF7C9FE42
:1009800000F0D4FBD4E74FF0E0234FF08052C3F8DF
:10099000042DBFF34F8FBFF36F8FC9E72046FFF7DA
:1009A000B8FE00F0C3FB90E72DE9F84389461746EF
:1009B0001E46044640B94FF0500383F31188BFF33D
:1009C0006F8FBFF34F8FFEE751B9036C43B14FF008
:1009D000500383F31188BFF36F8FBFF34F8FFEE790
:1009E000022E0BD1E36B012B08D04FF0500383F3A1
:1009F0001188BFF36F8FBFF34F8FFEE7FFF7CAFD7C
:100A0000EFF311884FF0500383F31188BFF36F8F1A
:100A1000BFF34F8FA26BE36B9A4201D3022E1ED11C
:100A200094F845503246494620466DB2A36BFFF715
:100A30002AFE6B1C0ED1636A3BB104F1240000F066
:100A400085FC10B10FB101233B60012088F31188B0
:100A5000BDE8F88301356DB284F84550F5E7002014
:100A6000F4E72DE9FF410E460446019240B94FF0EC
:100A7000500383F31188BFF36F8FBFF34F8FFEE7EF
:100A800051B9036C43B14FF0500383F31188BFF3A6
:100A90006F8FBFF34F8FFEE700F0E8FC054650B9BB
:100AA000019B4BB14FF0500383F31188BFF36F8F5D
:100AB000BFF34F8FFEE700254FF000083DE0019B9C
:100AC0001BB9FFF7AFFC002056E015B902A800F0F3
:100AD0007FFCFFF7A7FC00F079FAFFF783FC94F89E
:100AE0004430FF2B08BF84F8448094F84530FF2B36
:100AF00008BF84F84580FFF795FC01A902A800F023
:100B000073FC002841D12046FFF7B2FDB8B301992C
:100B100004F1240000F0E0FB2046FFF7FAFD00F0AE
:100B200005FB48B94FF0E0234FF08052C3F8042D85
:100B3000BFF34F8FBFF36F8F0125FFF753FCA76BF8
:100B4000002FBCD031462046013FFFF7CFFDA76301
:100B5000236973B104F1100000F0F8FB48B14FF0C5
:100B6000E0234FF08052C3F8042DBFF34F8FBFF343
:100B70006F8FFFF757FC012004B0BDE8F0812046DD
:100B8000FFF7C7FD00F0D2FAD6E72046FFF7C1FD18
:100B900000F0CCFA2046FFF76BFD0028CCD092E79E
:100BA000002330B5064A52F8335002EBC3041DB996
:100BB00042F83310606030BD0133082BF3D1FAE7FF
:100BC000A800002070B504460D461646FFF70AFC43
:100BD00094F84430FF2B04BF002384F8443094F889
:100BE0004530FF2B04BF002384F84530FFF71AFC83
:100BF000A36B2BB93246294604F1240000F086FB92
:100C00002046BDE87040FFF784BD0000F8B51A4BE0
:100C10001A4D06461C6828680F460430FFF718FD79
:100C200040B92A681649D06A01220B68824023EA3B
:100C300002030B60731C07D137B1296811480431D6
:100C4000BDE8F840FFF7E2BC2B68A4195C6007D34D
:100C50000D4B18682968BDE8F8400431FFF7E1BC86
:100C60000A4B186829680431FFF7DBFC084B1A6847
:100C7000A24288BF1C60F8BD0C01002010020020B9
:100C80000801002014010020540100205801002018
:100C9000F000002080B5184D184F194E2B6883B90D
:100CA000184B1B68012B09D94FF0E0234FF08052FD
:100CB000C3F8042DBFF34F8FBFF36F8FFFF7C4FA54
:100CC000EBE7FFF78FFBFB68DC68201DFFF7C0FC3C
:100CD0003368013B33602B68013B2B60FFF7A2FBBD
:100CE00004F1580002F074FF206BFFF71FFB204651
:100CF000FFF71CFBD2E700BF280100202C010020D9
:100D00001001002084010020064A13681968064B70
:100D100019B94FF0FF321A6070471268D268D26872
:100D20005268F8E758010020F00000202DE9F84F44
:100D30009600074630460D469846DDF82C90FFF7A2
:100D4000F3FA824618B94FF0FF30BDE8F88F4FF440
:100D5000D070FFF7E9FA0446002800F0C58032465B
:100D6000C0F830A0A521504602F02AFF236B043EB4
:100D70001E4426F00706002D00F0A8806B1E04F12B
:100D800033020F3513F8011F02F8011F09B1AB42FE
:100D9000F8D1002384F843300A9D4FF0000B062D54
:100DA00028BF062504F1040A5046E562E564C4F84C
:100DB00050B0FFF728FCC5F1070504F11800FFF754
:100DC00022FC4FF4A0725946C4F898B12461A56181
:100DD000646284F89CB104F1580002F0F1FE444BC7
:100DE000394603F16802E365D03322666366012267
:100DF0000023C4E93C233F4A3F4B3046C4E93E232D
:100E00003E4B4246C4F800310B23A4F80431FFF7EF
:100E1000BFFA2060B9F1000F01D0C9F80040FFF718
:100E2000E1FA374B374F1A68374E01321A603D6886
:100E3000002D4ED13C601B68012B1FD1B0464046AF
:100E40000135FFF7D5FB072D08F11408F7D1DFF8BE
:100E5000BC802F4D4046FFF7CBFB2846FFF7C8FB71
:100E60002C48FFF7C5FB2C48FFF7C2FB2B48FFF7C8
:100E7000BFFB2B4BC3F800802A4B1D602A4A2B492D
:100E8000136808680133136063640123E26A9340C6
:100E9000034314200B6000FB02605146FFF7B6FBD2
:100EA000FFF7C0FA224B1B6873B13B68DA6AE36A4A
:100EB0009A4209D24FF0E0234FF08052C3F8042D3C
:100EC000BFF34F8FBFF36F8F01203EE784F834509C
:100ED00062E7174B1B68002BD0D13B68DA6AE36AE4
:100EE0009A4298BF3C60C9E75046FFF71FFA2AE7CD
:100EF000D80400200E33CDAB34126DE6ECDE0500D5
:100F00001001002010020020840100207001002048
:100F10005C010020400100202C0100201401002071
:100F20005801002054010020F40000200801002096
:100F30000401002013B500241B4B1C4A01931C49DB
:100F400023461C480094C2F3CF02FFF7EFFE0128AE
:100F500008D04FF0500383F31188BFF36F8FBFF3B6
:100F60004F8FFEE700F02CFB012819D14FF0500302
:100F700083F31188BFF36F8FBFF34F8F0E4B0F4A70
:100F80001B68583313604FF0FF320D4B1A600D4B46
:100F900018600D4B1C6002B0BDE81040FFF7A2BA0C
:100FA0000130D6D002B010BDEC00002000040000DB
:100FB000433E0008950C0008100200202C00002081
:100FC000F0000020040100200C010020024A1368F8
:100FD00001331360704700BFE8000020014B186820
:100FE000704700BF0C010020454B2DE9F74F1B68EF
:100FF000002B7CD1434B1C6801341C60BCB9424BB4
:101000001A68126842B14FF0500383F31188BFF39E
:101010006F8FBFF34F8FFEE73C4A19681068186066
:1010200011603B4A136801331360FFF76DFE394EC0
:1010300000253368384F9C42DFF8E0800AD3DFF8A0
:10104000C8B0DFF8DCA0DBF800301B68E3B94FF074
:10105000FF3333601422D8F80030DB6A5343FC5866
:10106000304B012C1B6894BF002401240BB9FFF7FF
:1010700002F92D4B1B68002B18BF44F0010444EA11
:10108000050003B0BDE8F08FDBF80030DB68D3F873
:101090000C90D9F80420944201D23260DAE709F1C9
:1010A000040318460193FFF7D3FAD9F828201AB1A0
:1010B00009F11800FFF7CCFA0123D9F82C00DAF86F
:1010C000001003FA00F20A43CAF80020142209F1C2
:1010D000040102FB0070FFF799FAD8F80010D9F864
:1010E0002C20CB6A9A4228BF45F00105ABE70D4A98
:1010F000136801331360FFF7BEF80020C1E700BF9B
:10110000E80000200C0100205801002054010020BC
:10111000F8000020F00000208401002010020020D0
:101120000801002000010020FC0000202DE9F84308
:10113000314C236843B94FF0500383F31188BFF358
:101140006F8FBFF34F8FFEE7FFF74CF92368013B2A
:10115000236024682CB10024FFF764F92046BDE821
:10116000F883264B1B68002BF5D0254D254EDFF864
:1011700098801FE0EB680127DC6804F1040904F1A2
:101180001800FFF765FA4846FFF762FA1420E26A92
:10119000316807FA02F30B4300FB028049463360D3
:1011A000FFF734FA194BE26A1B68DB6A9A4201D3F3
:1011B000174B1F602B68002BDCD10CB1FFF7A4FD8F
:1011C000144D2C6844B10127114EFFF70DFF00B1FB
:1011D0003760013CF9D12C600D4B1B68002BBAD055
:1011E0004FF0E0234FF08052C3F8042DBFF34F8F30
:1011F000BFF36F8F0124AFE7E8000020100100204B
:10120000400100200801002084010020100200207D
:10121000FC0000200001002008B550B94FF0E02389
:101220004FF08052C3F8042DBFF34F8FBFF36F8F81
:1012300008BD0A4B196841B14FF0500383F3118880
:10124000BFF36F8FBFF34F8FFEE7FFF7BFFEFFF7D0
:10125000DDFCFFF76BFF0028E0D0E9E7E8000020A5
:10126000174B1A68174B12B101221A6070471A60A7
:10127000154B1B68B3FA83F31422DBB2C3F11F03CF
:1012800053431248C258C11842B94FF0500383F378
:101290001188BFF36F8FBFF34F8FFEE74A680833A3
:1012A000526803449A424A6008BF5268084B08BF1C
:1012B0004A60D2681A601B68064A58331360704748
:1012C000E8000020FC00002008010020840100202C
:1012D000100200202C00002010B50C4640B94FF041
:1012E000500383F31188BFF36F8FBFF34F8FFEE777
:1012F000054B19681831FFF794F92046BDE81040F6
:101300000121FFF783BC00BF1002002038B50D4655
:10131000144640B94FF0500383F31188BFF36F8F29
:10132000BFF34F8FFEE7084B19681831FFF76EF9CE
:10133000002C214608BF2846BDE8384018BF4FF0B2
:10134000FF30FFF763BC00BF1002002038B5C36850
:10135000DC6844B94FF0500383F31188BFF36F8FFB
:10136000BFF34F8FFEE704F118052846FFF770F929
:10137000114B1B68E3B9251D2846FFF769F90123C6
:101380000E49E26A08689340034314200B60294623
:101390000B4B00FB0230FFF739F90A4BE26A1B687E
:1013A000DB6A9A4285BF0120074B0020186038BDD8
:1013B00029460648EFE700BFE800002008010020AA
:1013C0008401002010020020FC00002040010020C9
:1013D000034B1B680360034B1B684360704700BFEF
:1013E000F80000200C01002070B50C46054640B9FD
:1013F0004FF0500383F31188BFF36F8FBFF34F8F0C
:10140000FEE741B94FF0500383F31188BFF36F8FAC
:10141000BFF34F8FFEE7FEF7E5FF0F4B1968236818
:101420005A1C10D00D482E6800686A68864201D0A8
:101430008A420FD9881A83420AD95B1A1344284674
:101440002360FFF7C5FF0024FEF7ECFF204670BDC8
:10145000002323600124F7E70C010020F80000209E
:101460000122014B1A607047FC000020054B1B68ED
:1014700033B1054B1868B0FA80F04009400070475E
:101480000120704704010020E8000020F8B5044660
:1014900008B90020F8BD224B1B68834208D04FF0EA
:1014A000500383F31188BFF36F8FBFF34F8FFEE7B5
:1014B0001B6D43B94FF0500383F31188BFF36F8F57
:1014C000BFF34F8FFEE7C16AC26C013B91420365D7
:1014D000DFD0002BDDD1061D3046FFF7B9F8114FE4
:1014E000114A50B91423E16A4B43FB582BB901252B
:1014F00013688D4023EA05031360E36C1420C3F1E5
:101500000701A161E3620124116804FA03F500FBFD
:1015100003700D4331461560FFF778F82046B9E7B0
:10152000100200208401002008010020914208B52B
:10153000416000610AD8D21A83699A420DD2084BE1
:10154000011D1868FFF76DF8002008BD9A4201D20E
:10155000994202D2034B011DF3E70120F5E700BFDA
:101560002002002024020020F8B50F4CFEF73AFFBD
:101570002568ADB90D4F0E4E3846FFF739F83046A5
:10158000FFF736F80B4B2A461F600B4B0C210A2045
:101590001E60FFF733F9206010B10849FFF700FB28
:1015A000BDE8F840FEF73EBF1C0200203C020020D0
:1015B000280200202402002020020020483E0008CB
:1015C00007B5FFF7D1FF0F4B1B6843B94FF050032E
:1015D00083F31188BFF36F8FBFF34F8FFEE70A4B82
:1015E0000A4A01930223D2085200009308490023BB
:1015F000084892B2FFF79AFB0028E7D003B05DF8E5
:1016000004FB00BF1C0200201802002000040000A0
:101610004D3E0008E51600087FB5154604461A46FB
:1016200040B94FF0500383F31188BFF36F8FBFF3BE
:101630004F8FFEE70D4E306888B10529CDE90115C1
:1016400003940EDCFFF712FF0346022B4FF000035A
:10165000306814BF1A46089A01A9FFF7F3F804B0DE
:1016600070BD002301A9FFF79FF9F8E71C020020D5
:10167000F7B51A4D2B681A682AB9194A1168136010
:10168000296003B0F0BDDB68DC681E68271D3846A2
:10169000FEF7DEFF236A2046984794F828305B0760
:1016A000E8D5A36933449E4206D239462868636070
:1016B0002461FEF7B6FFDDE70023324619462046D7
:1016C0000093FFF7A9FF0028D4D14FF0500383F314
:1016D0001188BFF36F8FBFF34F8FFEE72402002006
:1016E000200200202DE9F043794F7A4E87B03B6805
:1016F000D3F80080B8F1000F28D00024DB68D3F8BD
:101700000080FFF763FCFFF769FC336805469842E9
:101710001ED3306024B3704B1B681C68B4FA84F489
:1017200064096E4B22461868A8EB0501FFF74AFAD8
:10173000FFF7FCFC88B94FF0E0234FF08052C3F86C
:10174000042DBFF34F8FBFF36F8F06E00124D8E75E
:10175000FFF78EFF3560FFF7E9FCDFF880817AE064
:101760008045DED8FFF7E2FC3B68DB68D3F80C90DD
:1017700009F10400FEF76CFF99F82830580719D5D5
:10178000D9F8181043462A4648464144FFF7CEFE92
:10179000A0B123464246214648460094FFF73CFF4D
:1017A00060B94FF0500383F31188BFF36F8FBFF31D
:1017B0004F8FFEE723F0010389F828304846D9F817
:1017C00020309847C9E794F82830A16943F0010315
:1017D00084F82830049B2A4620461944FFF7A6FEC9
:1017E000002838D0236A2046984794F828305907B3
:1017F00031D50023A269049920460A440093194672
:10180000FFF70AFF38BB4FF0500383F31188BFF393
:101810006F8FBFF34F8FFEE794F8283023F001035A
:1018200084F8283017E094F82830049943F0010335
:1018300084F82830A16141B94FF0500383F3118837
:10184000BFF36F8FBFF34F8FFEE72B462A4620462C
:101850002944FFF76BFE0022D8F8000003A9FFF728
:1018600000F900283FF443AF039B002BF3DB059CFA
:10187000636913B1201DFEF7EBFEFFF7AFFB336882
:101880000546984201D2FFF7F3FE039B3560092B12
:10189000E1D801A252F823F0C7170008C7170008C3
:1018A000C71700081918000827180008C1180008F1
:1018B000C7170008C71700081918000827180008DC
:1018C00094F828309A07A9D42046FEF72FFDC2E7E6
:1018D0002402002014020020200200201C0200200C
:1018E000FEE700001622024B4FF0FF301A607047EF
:1018F0001006002001207047836810B504462BB104
:101900000322014698470023C4E9023310BD8368CF
:1019100010B5044613B1032201469847204610BD76
:10192000084B984207D0B0F1804F06D0A3F594330E
:10193000984204D0FEE70020704701207047022043
:10194000704700BF002C0140024670B5044652F8B3
:10195000100FFFF7E5FF0546104601F029FB0023B5
:10196000084AE36042F8253004F1600604F1B0054E
:10197000B54204D0103D2846FFF7C9FFF8E72046DE
:1019800070BD00BF50020020F8B504460846FFF7BE
:10199000C7FF236903B1FEE71B4D04F10C0245F8B4
:1019A00020200E2204F110063046C4E90C33C4E9AD
:1019B0000E33C4E91033C4E91623216184F82C30B6
:1019C000A36484F84C3084F84D30E46001F0BCFA34
:1019D00004F1600504F1B00728461035FFF78CFFCD
:1019E000BD42F9D100234FF6FF72C4E90033C4E9C8
:1019F0000632C4E90833A360636180233046A362E2
:101A0000BDE8F84000F06CBD50020020034B1868A0
:101A100010B1043000F0A2BC704700BF500200209B
:101A2000FFF7F4BF034B586810B1043000F096BCC8
:101A3000704700BF50020020034B986810B104307B
:101A400000F08CBC704700BF500200200022C0E9AB
:101A50000022C0E902227047F8B504460E4600F1A4
:101A6000600500F1B00728461035FFF7EFFFBD42D3
:101A7000F9D10023204631462361FFF785FF204638
:101A8000F8BD826810B50AB902F0C6F9C368BDE8AE
:101A90001040184708B500B9FEE701F053FA006896
:101AA000836E13B16030FFF7ECFF08BDFFF7F2BFA4
:101AB00010B500B9FEE7037F013B072B10D8DFE824
:101AC00003F004140F100F0F0F12012401F03AFA63
:101AD0000068063400EB041083680BB1FFF7D1FFF8
:101AE00010BD0324F2E70424F0E70224EEE7FFF739
:101AF000DFBFFFF7DDBF01F0B1BF01F0B7BF704737
:101B000038B50E4B05461A784FF47A73B3FBF2F3EF
:101B10000B4A1068B0FBF3F000F09CF8044658B98B
:101B20000F2D09D8024629464FF0FF3000F042F849
:101B30002046044B1D6038BD0120FCE70800002052
:101B4000280000200C000020074A08B51368032075
:101B500043F01003136000F01BF80020FFF7D0FFE4
:101B6000FFF7CDFF002008BD00200240034A044BD0
:101B700011681B780B441360704700BF5C020020A3
:101B800008000020014B1868704700BF5C0200206D
:101B900007490302CA6803F4E06322F4E062120416
:101BA000120C134343F0BF6343F40033CB60704720
:101BB00000ED00E0154B30B5DC68C4F30224C4F13D
:101BC0000703251D042B28BF0423062D4FF0FF35E6
:101BD00094BF0024033C05FA03F321EA0303A54064
:101BE00022EA0502A340002843EA0203ACBF00F149
:101BF0006040074A4FEA0313DBB2ABBF00F5614018
:101C000000F00F0080F80033135430BD00ED00E009
:101C100014ED00E0002807DB01234109034A00F02E
:101C20001F00834042F82130704700BF00E100E010
:101C300000280CDB01220649430900F01F00824006
:101C4000203341F82320BFF34F8FBFF36F8F7047CE
:101C500000E100E00138B0F1807F0BD24FF0E023CB
:101C6000F021054A586182F823100020072298616C
:101C70001A6170470120704700ED00E0002808DB82
:101C800001224309034900F01F008240603341F8FC
:101C90002320704700E100E0704708B5FFF7FCFF24
:101CA00008BD704710B5044650B1437903F0FF02F8
:101CB00013B90271FFF7F5FF01230020637110BD16
:101CC0000120FCE790F821200346022A06D00422D6
:101CD00082630120002283F8202070470268C06BD5
:101CE000116821F00E011160116821F001011160ED
:101CF00001211A6C01FA02F24260002083F82110DF
:101D0000E8E7000008B590F82130022B03D0042347
:101D10008363012008BD03681A6822F00E021A606E
:101D20001A6822F001021A60174A93421FD0143237
:101D300093421ED0143293421DD0143293421DD0D0
:101D4000143293421DD01432934214BF4FF080736B
:101D50004FF480130D4A5360012380F82130002393
:101D600080F82030436B03B198470020D2E701236D
:101D7000F0E71023EEE74FF48073EBE74FF4805366
:101D8000E8E74FF48033E5E7080002400000024036
:101D9000044A08B55169014202D0506101F074FA59
:101DA00008BD00BF000401402DE9F341054638B3EA
:101DB0000368DB0710D42B689F075ED42B681907D4
:101DC00000F195802B685A0700F1C180EB69002B68
:101DD00040F02C81002029E0904C636803F00C0354
:101DE000042B07D0636803F00C03082B0AD1636847
:101DF000DE0307D523689C03DDD56B68002BDAD1A1
:101E0000012013E06B68B3F5803F12D1236843F4DF
:101E100080332360FFF7B6FE064623689803CAD4D2
:101E2000FFF7B0FE801B6428F7D9032002B0BDE89D
:101E3000F0819BB9236823F480332360236823F463
:101E400080232360FFF79EFE064623689903B2D5E0
:101E5000FFF798FE801B6428F7D9E6E7B3F5A02FBB
:101E6000236803D143F480232360CFE723F4803336
:101E70002360236823F48023CBE7684C636813F066
:101E80000C0F07D0636803F00C03082B10D16368B4
:101E9000DA030DD423689B0702D52B69012BAFD140
:101EA00023686A6923F0F80343EAC203236085E7E5
:101EB0002A695B4B6AB101221A60FFF763FE06468E
:101EC00023689F07ECD4FFF75DFE801B0228F7D93B
:101ED000ABE71A60FFF756FE0646236898077FF5C2
:101EE0006DAFFFF74FFE801B0228F6D99DE7AA6968
:101EF0004A4E4B4BE2B10122C3F88024FFF742FE69
:101F00000446736A9B070DD54FF4FA52454B1B6884
:101F1000B3FBF2F3019300BF019B5A1E0192002B09
:101F2000F9D14FE7FFF72EFE001B0228E9D97CE725
:101F3000C3F88024FFF726FE0446736A9F077FF5E7
:101F400041AFFFF71FFE001B0228F6D96DE7334CA7
:101F5000E369D80024D40127E36943F08053E361A7
:101F6000E36903F080530093009B2F4E3368D9053B
:101F700018D5EB68012B26D1236A43F001032362B5
:101F8000FFF700FE41F288380646236A9B073FD5DB
:101F9000002F3FF41BAFE36923F08053E36115E7A3
:101FA0000027E2E7336843F480733360FFF7EAFD0C
:101FB00080463368DA05DCD4FFF7E4FDA0EB0800C7
:101FC0006428F6D931E7ABB9236A41F2883823F0A7
:101FD00001032362236A23F004032362FFF7D2FD87
:101FE0000646236A9807D3D5FFF7CCFD801B4045F2
:101FF000F7D91AE7052B236A03D143F004032362C0
:10200000BAE723F001032362236A23F00403B6E74F
:10201000FFF7B8FD801B4045B7D906E70010024026
:102020000000424228000020007000402A4C6268F4
:1020300002F00C02082A3ED00022022B274B1A661F
:102040002CD1FFF79FFD06462368990120D42B6A07
:10205000B3F5803F05D16268A96822F400320A43D3
:102060006260696A62680B4322F4741213430122AE
:1020700063601A4B1A66FFF785FD054623689A01CF
:102080003FF5A8AEFFF77EFD401B0228F6D9CCE64F
:10209000FFF778FD801B0228D6D9C6E6FFF772FD50
:1020A000054623689B017FF595AEFFF76BFD401B4E
:1020B0000228F6D9B9E6012B3FF4A2AE60682B6A7C
:1020C00000F480329A427FF49BAE6B6A00F4701089
:1020D000C01A18BF0120A9E60010024000004242C9
:1020E0000D4A536803F00C01082912D10B48C3F3C1
:1020F0008341DB03405C09D55368094AC3F340437D
:102100005043084AD35CB0FBF3F07047064B58438A
:1021100070470348704700BF00100240573E000858
:1021200000127A00553E000800093D002DE9F041FB
:102130000D46044610B90120BDE8F081444A1368F9
:1021400003F007038B4228D321688E0730D4CA07D7
:1021500043D43F4A136803F00703AB4265D82268B3
:102160003C4D12F0040F6CD1130706D56B68226941
:1021700023F4605343EAC2036B60FFF7B1FF6B685F
:10218000354AC3F30313D35CD840344B1860344B47
:102190001868FFF7B5FC0020CEE7136823F00703AB
:1021A0000B431360136803F007038B42C3D1CBE7E3
:1021B000284B11F0040F1EBF5A6842F4E0625A60C7
:1021C000080742BF5A6842F460525A605A68A068D1
:1021D00022F0F00202435A60B9E762681D4E012AFC
:1021E00033681AD113F4003FA5D0736841F28838E0
:1021F00023F0030313437360FFF7C4FC07467368BF
:10220000626803F00C03B3EB820FA2D0FFF7BAFCB5
:10221000C01B4045F3D903208EE7022A02D113F0F8
:10222000007FE1E713F0020FDEE7136823F00703F6
:102230002B431360136803F00703AB427FF47BAFBB
:102240008DE76B68E16823F4E0630B436B608BE719
:102250000020024000100240A83E00082800002094
:102260000C00002003682DE9F3410546D80720D56E
:10227000364CE369D9002AD40126E36943F0805340
:10228000E361E36903F080530193019B304F3B68A6
:10229000DA051ED5236A13F440732ED1236A6A68C7
:1022A00023F44073134323621EB1E36923F0805388
:1022B000E3612A68910706D52449A8684B6823F48E
:1022C000404303434B60D30637D4002012E000267E
:1022D000DCE73B6843F480733B60FFF753FC8046C8
:1022E0003B68DB05D6D4FFF74DFCA0EB0800642863
:1022F000F6D9032002B0BDE8F0816A6802F44072AA
:102300009A42CBD00120134A236AC2F8400400202D
:1023100023F44071DF07C2F840042162BED5FFF705
:1023200031FC41F288380746236A9807B6D4FFF794
:1023300029FCC01B4045F7D9DBE7044AE96853682C
:1023400023F480030B435360BFE700BF001002403B
:10235000007000400000424270477047036870B54B
:10236000DD681E690446B1070DD5AA070BD56FF0CD
:1023700002021A61012202779B699B0769D0FFF76D
:10238000B8FB00232377710710D56A070ED56FF0CD
:102390000402236820461A61022222779B6913F403
:1023A000407F5CD0FFF7A5FB0023237733070FD5D1
:1023B00028070DD56FF00802236820461A61042211
:1023C0002277DB69990750D0FFF793FB002323772F
:1023D000F20610D5EB060ED56FF0100223682046EA
:1023E0001A6108222277DB6913F4407F43D0FFF79C
:1023F00080FB00232377F00708D5E90706D56FF0A7
:102400000102236820461A61FFF750FB320608D507
:102410002B0606D56FF08002236820461A6100F073
:102420008CF8700608D5690606D56FF0400223685F
:1024300020461A61FFF791FFB20622D5AB0620D5E0
:102440006FF0200223682046BDE870401A6100F05A
:1024500073B8FFF74CFB2046FFF77EFF91E7FFF7CD
:1024600046FB2046FFF778FF9EE7FFF740FB20463C
:10247000FFF772FFAAE7FFF73AFB2046FFF76CFF72
:10248000B7E770BD154A0368904206D0B0F1804F9F
:1024900003D0A2F59432904207D14A6823F070032A
:1024A0001343CA6823F4407313434A6923F080033B
:1024B000134303608B68C3620B688362074B9842C7
:1024C00004BF0B690363012343610369DB0742BF58
:1024D000036923F001030361704700BF002C014032
:1024E00010B5044630B390F83D3003F0FF021BB93D
:1024F00080F83C2000F0B0FD0223206884F83D30D5
:10250000211DFFF7BFFF0123002084F8463084F827
:102510003E3084F83F3084F8403084F8413084F80D
:10252000423084F8433084F8443084F8453084F8ED
:102530003D3010BD0120FCE770477047026802F192
:102540000C0353E8003F23F490730C3242E800314F
:1025500002680029F2D102F1140353E8003F23F08E
:10256000010302F1140C4CE800310029F3D1036B94
:10257000012B0BD102F10C0353E8003F23F01003B1
:1025800002F10C0C4CE800310029F3D1202380F833
:10259000423000230363704790F84130202B10D164
:1025A00089B182B1C2848284002321220162016840
:1025B000436480F84120CA68184642F08002CA602D
:1025C0007047022070470120704708B50023406A19
:1025D000C385C38400F0CEFD08BD704790F842303B
:1025E00007B5222B42D181680268B1F5805F836A0A
:1025F0003FD1016900293FD15268C2F3080223F894
:10260000022B8362C38D013B9BB2C385002B2DD16E
:102610000268D16821F02001D160D16821F4807175
:10262000D160516921F001015161202280F84220DE
:102630004363026B012A026828D1036302F10C0391
:1026400053E8003F23F0100302F10C0C4CE800317A
:102650000029F3D11368DB0605D5019113680193B6
:1026600053680193019B818DFFF7B7FF03B05DF8BD
:1026700004FB39B9016929B95268D2B21A70836A68
:102680000133BEE7526802F07F02F7E700F06CFD0D
:10269000ECE70000036873B51A6804461607D968AA
:1026A0005D6908D1960668D58D0666D502B0BDE88D
:1026B0007040FFF793BF05F0010001F490750543EA
:1026C0005BD0D60705D5CD0542BF636C43F001034F
:1026D0006364530704D518B1636C43F00203636469
:1026E000960704D518B1636C43F0040363641507BF
:1026F00007D501F0200303431EBF636C43F00803BA
:102700006364636C002B32D0920604D58B0602D52D
:102710002046FFF763FF266820467369626C03F06A
:10272000400302F0080253EA020522D0FFF706FF39
:1027300073695E0618D5226802F1140353E8003F5E
:1027400023F04003143242E800310029F3D1E06B5A
:1027500050B1744B4363FFF7D5FA40B1E06B436B64
:1027600002B0BDE870401847204600F003FD02B0FB
:1027700070BD00F0FFFC6564F9E7206B012840F0B4
:102780009480D50640F19180C80640F18E800022E9
:1027900001921A6801925A680192019A5A69520686
:1027A0004DD5E16B0A68526892B2002ADFD0A08D45
:1027B0009042DCD9E2858A69202A36D003F10C02E6
:1027C00052E8002F22F4807203F10C0040E800214F
:1027D0000029F3D103F1140252E8002F22F0010284
:1027E00003F1140040E800210029F3D103F11402A1
:1027F00052E8002F22F0400203F1140040E80021CB
:102800000029F3D1202284F84220216303F10C0235
:1028100052E8002F22F0100203F10C0040E80021E2
:102820000029F3D1E06BFFF74DFA02236363E38DD8
:10283000A18DC91A89B22046FFF7CFFE97E7E28D36
:10284000E18D92B289B2002991D0A18D891A89B205
:1028500000298CD003F10C0252E8002F22F4907270
:1028600003F10C0545E800200028F3D103F1140220
:1028700052E8002F22F0010203F1140545E8002080
:102880000028F3D1202284F84220206303F10C02B7
:1028900052E8002F22F0100203F10C0545E8002059
:1028A0000028F3D102236363C5E7160628D50D0679
:1028B00026D594F84120212A7FF459AFA168226AD5
:1028C000B1F5805F17D12169A9B932F8021BC1F3B4
:1028D000080159602262E28C013A92B2E284002A35
:1028E0007FF445AFDA6822F08002DA60DA6842F0FD
:1028F0004002DA603BE7511C216212785A60EAE735
:1029000050067FF534AF4A067FF531AFDA682046CE
:1029100022F04002DA60202384F8413000F027FCE6
:1029200025E700BFCB25000890F84030012B11D0DF
:102930002423026880F84130D36823F00C0343F06D
:102940000803D360202380F84130002380F8403012
:10295000184670470220704790F84030012B11D084
:102960002423026880F84130D36823F00C0343F03D
:102970000403D360202380F84130002380F84030E6
:10298000184670470220704790F8412090F84200A6
:10299000104370470023C285436422238285026965
:1029A00080F84230816203681AB1DA6842F48072BA
:1029B000DA605A69002042F001025A61DA6842F096
:1029C0002002DA60704770B590F84260202E07D17F
:1029D00041B13AB100240463FFF7DCFF204670BD2B
:1029E0000220FCE70120FAE784B0032834D8DFE8AE
:1029F00000F0020F1B27194B19489A6942F0040294
:102A00009A619B6903F004030093009B04B0704734
:102A1000124B14489A6942F008029A619B6903F0CC
:102A200008030193019BF1E70C4B0F489A6942F0B0
:102A300010029A619B6903F010030293029BE5E781
:102A4000064B0A489A6942F020029A619B6903F09A
:102A500020030393039BD9E70020D7E7001002402F
:102A600000080140000C014000100140001401402A
:102A7000FFF788B808B5FFF779F8FFF70EF9FDF70B
:102A8000FBFB08BD704700000F4B84B0DA6942F0D1
:102A90008052DA61DA6902F080520192019A9A69F1
:102AA00042F001029A619A6902F001020292029ACE
:102AB0005A6942F040025A615B6903F04003039394
:102AC000039B04B0704700BF001002400C4BD3F8CA
:102AD000FC20D2015EBFD3F8FC2042F08072C3F824
:102AE000FC200022074B5A601A6842F001021A606B
:102AF00000BF00BF00BF5868B0FA80F040097047BF
:102B000000ED00E0001000E008B5FFF7BDFFFFF7A3
:102B1000DDFFFFF719F8FFF7B5FF00F075FCBDE822
:102B200008400148FFF7BEB820000020614B82B08A
:102B30009A69013842F001029A619B6903F001032E
:102B40000193019B23281AD8DFE800F0121B2229E9
:102B50002E353A41191919464D565B626B747980CE
:102B60008919191919198E95191919199A9FA6AD4C
:102B7000514A536843F0E06343F00103536002B0ED
:102B800070474D4A536823F0010343F0E063F5E7D3
:102B9000494A536843F0E06343F00203EEE7464AD4
:102BA000536823F00203F0E7434A536843F0E063BD
:102BB00043F00403E2E7404A536823F00403E4E7E8
:102BC0003D4A536843F0E06343F00803D6E73A4ACE
:102BD000536823F00803D8E7374A536843F0E063AB
:102BE00043F0C003CAE7344A536823F0C00343F0FC
:102BF000E06343F04003C1E72F4A536823F0C0036A
:102C0000C3E72D4A536843F0E06343F44073B5E7EC
:102C1000294A536823F4407343F0E06343F400739C
:102C2000ACE7254A536823F4407343F0E06343F470
:102C30008073A3E7204A536823F44073A5E71E4A34
:102C4000536843F0E06343F4406397E71A4A5368DC
:102C500023F4406343F0E06343F400638EE7164AD5
:102C6000536823F4406390E7134A536843F0E063EA
:102C700043F4004382E7104A536823F4004384E797
:102C80000D4A536823F0E06378E70B4A536823F05A
:102C9000E06343F0807371E7074A536823F0E06311
:102CA00043F000736AE7044A536823F0E06343F09B
:102CB000806363E7001002400000014091FAA1F335
:102CC000B3FA83F370B50D0E0F2691FAA1F1B1FAA4
:102CD00081F144599B0006FA03F3890024EA0304B6
:102CE0008A402243425170BD91FAA1F3B3FA83F3B3
:102CF00070B50D0E042691FAA1F1B1FA81F1445993
:102D00009B0006FA03F3890024EA03048A40224365
:102D1000425170BD431C04D00C3151F80C3C5A1C7C
:102D200001D100207047834201F10C01F5D101204F
:102D300070470000431C2DE9F34106460F4600D1C1
:102D4000FEE7594B00F00F02C0F3031001F0070833
:102D500053F82240FFF748FEB8F1010F054615D1A0
:102D600094FAA4F3B3FA83F30321200E2A589B00AC
:102D700001FA03F322EA030294FAA4F3B3FA83F309
:102D80009B00994011432950012213E0C7F306200C
:102D9000B8F1030F0AD801A353F828F0AF2D0008AB
:102DA000892D0008132E0008212E0008FEE7FFF7EA
:102DB000BDFE08222146284608F1FF38FFF77EFFB6
:102DC000B8F1010F06D817F0080218BF04222146F7
:102DD000FFF78AFF94FAA4F2230EB2FA82F2E958BE
:102DE0000F239200934094FAA4F2B2FA82F2C7F34E
:102DF00001170B409200012F23FA02F312D0022F89
:102E00003BD0082B21D1042221462846FFF756FF4C
:102E10001BE07F2801D10922CCE7FFF787FEFAE704
:102E20000022C7E7042B04D1082221462846FFF7D9
:102E300045FF230A93FAA3F3B3FA83F20123E96867
:102E4000934021EA14210B43EB60184B9A6942F03E
:102E500001029A619B6903F001030193019BA6F1B2
:102E60000D03012B14D8124A536823F0E06343F09A
:102E70008063536002B0BDE8F081042B04D10822C6
:102E800021462846FFF71AFFEB6823EA1423DBE705
:102E90000F2E02D0133E012EECD8054A536823F0C2
:102EA000E06343F00073E4E7683E0008001002406E
:102EB000000001400B685A1C01D10020704783427A
:102EC00001D1486870470C31F4E7431C01D0FFF78B
:102ED000F1BF002070474B6813B94FF0FF307047C7
:102EE000834201D1086870470C31F4E708B1FFF75D
:102EF000F2BF4FF0FF3070470F4B1A6842F00102EB
:102F00001A6059680D4A0A405A601A6822F08472A1
:102F100022F480321A601A6822F480221A605A68F9
:102F200022F4FE025A604FF41F029A604FF00062D2
:102F3000034B9A60704700BF001002400000FFF88A
:102F400000ED00E0043870470368164A84B09342ED
:102F50000BD1154B9A6942F400629A619B6903F4A4
:102F600000630193019B04B07047B3F1804F0BD114
:102F700003F50433DA6942F00102DA61DB6903F038
:102F800001030293029BEEE7084A9342EBD1064B02
:102F9000DA6942F00202DA61DB6903F002030393AB
:102FA000039BE0E7002C01400010024000040040B9
:102FB00003680E4A934206D102F56442936923F4F2
:102FC000006393617047B3F1804F05D1084AD3691C
:102FD00023F00103D3617047064A9342FBD102F507
:102FE0000332D36923F00203F4E700BF002C014051
:102FF0000010024000040040431C0AD0094B9842D4
:103000000AD003F59433984208D0B0F1804F07D02E
:10301000FEE76FF00D0070471D20704719207047C4
:103020001C20704700040040431C0AD0094B984202
:103030000AD003F59433984208D0B0F1804F07D0FE
:10304000FEE76FF00D0070471D2070471B20704792
:103050001C2070470004004038B50446FFF774FF99
:103060000068FFF7C9FFD4E91212FEF7A3FD20683C
:10307000FFF7C2FFFEF7CEFD22681046FFF7D4FF30
:1030800005461046FFF7B8FF85420BD0D4E912126F
:103090002846FEF78FFD2068FFF7C6FFBDE83840E1
:1030A000FEF7B8BD38BD000008B5074B90F86520A5
:1030B00053F82200FFF768FC00F02200A0F1220381
:1030C0005842584108BD00BF6002002008B5074BB8
:1030D00090F8652053F82200FFF756FC00F021001D
:1030E000A0F121035842584108BD00BF60020020F2
:1030F00038B515460446B8B1016590F96400FEF78D
:1031000097FDB4F87630E16E9BB294F865001944EF
:10311000064BAAB253F82000FFF73EFA94F9640078
:10312000BDE83840FEF776BD38BD00BF6002002024
:1031300048B1836D013306D190F86520024B53F8F6
:103140002200FFF7F1BB70476002002048B1836D99
:10315000013306D190F86520024B53F82200FFF7A7
:10316000FBBB704760020020836C04381847C36CB7
:103170000438184730B5044650F8043985B01D6846
:1031800015F0010512D0002200921A6800925B68C7
:103190000093009BFFF788FF40BB0122204604F10B
:1031A000620105B0BDE83040FFF70DBC196811F0B1
:1031B000020106D001951A6801925B680193019B98
:1031C000E8E71A6812F0040206D002911A68029227
:1031D0005B680293029BDDE719680907DAD5039261
:1031E0001A6803925B680393039BD3E705B030BD75
:1031F00008B52520FEF742FD024B1868BDE80840DF
:10320000FFF748BA60020020262008B5FEF736FD19
:10321000034B586818B1BDE80840FFF73BBA08BD3A
:1032200060020020F8B513490646FFF74EFEFEF790
:1032300077FB114F054657F8203073B9B020FEF7E1
:103240005AFC0C4904463046FFF73FFE0146204633
:10325000FEF702FC57F825301C601C6844B120467C
:10326000FEF772FB2046BDE8F840B021FEF745BCF2
:10327000F8BD00BF183F0008500200200023C0E93D
:103280000033C0E9023370470023012803F1010233
:103290000AD11422DBB25343054A181D1044816839
:1032A00029B11A441369184713464008EDE77047DF
:1032B000680200200120FEF76BBD0220FEF768BD0A
:1032C0000420FEF765BD0820FEF762BD1020FEF762
:1032D0005FBD08B52020FEF75BFD4020FEF758FDDE
:1032E0008020FEF755FD4FF48070FEF751FDBDE8DC
:1032F00008404FF40070FEF74BBD38B506244FF47C
:103300008065A8B2FEF744FD013C4FEA4505F8D1BF
:1033100038BD0000344A08B51046062300F8043BC7
:10332000FFF7ACFF072302F118001375FFF7A6FFA4
:10333000082302F12C0082F82830FFF79FFF0923B1
:1033400002F1400082F83C30FFF798FF0A23172172
:1033500002F1540082F85030FFF790FF02F168004C
:1033600082F86410FFF78AFF02F17C0082F878107F
:10337000FFF784FF02F1900082F88C10FFF77EFFC8
:1033800002F1A40082F8A010FFF778FF82F8B410D1
:10339000282102F1B800FFF771FF02F1CC0082F89A
:1033A000C810FFF76BFF02F1E00082F8DC10FFF7B6
:1033B00065FF02F1F40082F8F010FFF75FFF02F5FD
:1033C000847082F80411FFF759FF02F58E7082F8BD
:1033D0001811FFF753FFBDE8084002F5987082F816
:1033E0002C11FFF74BBF00BF6802002038B5054C19
:1033F000A4F5A075143C201DFEF789FAAC42F9D162
:1034000038BD00BFA803002010B594B014220021DD
:103410000CA800F0D5FB142200210DEB020000F0F7
:10342000CFFB1022002101A800F0CAFB02244FF4B8
:1034300080330122CDE91143CDE90A234FF4E01393
:103440000AA80E921393FEF7AFFC00B1FEE70F231C
:10345000CDE905344FF480630790CDE9083021466B
:1034600005A8FEF763FE00B1FEE7122301934FF4B7
:103470000043CDE9033001A8FEF7F4FE00B1FEE7FA
:1034800014B010BDFFF738FD0B480C490C4A00235F
:1034900002E0D458C4500433C4188C42F9D3094A0A
:1034A000094C002301E013600432A242FBD300F078
:1034B000EDFB00F0EDF87047000000207C000020DC
:1034C000E44100087C00002014060020FEE7000014
:1034D000C3B2222B2DE9F0410D462AD8274A00F429
:1034E000E06452F823301C43621C44D0244EC4F3E1
:1034F000031756F8273004F00F0823FA08F3DB0708
:1035000010D520461F49FFF705FC10B12046FFF7F4
:1035100089FE012256F8273002FA08F223EA020354
:1035200046F82730052D15D8DFE805F015211B1DBD
:103530001F2300F0C002C02A1DD1C92B1BD8124B7B
:1035400000F03F0253F822200C4B00F4E06453F8E3
:103550002230C8E7FEE700212046BDE8F041FFF732
:10356000E9BB1021F8E72021F6E70321F4E7012168
:10357000F2E70921F0E7BDE8F08100BF144100083F
:10358000A8030020183F0008EC400008C3B2222B1B
:103590001BD8174A00F4E06052F823301843431C4C
:1035A00025D010F0C00F02BF124BC0F3031253F826
:1035B0002220114B00F00F0053F8203018BF0022DA
:1035C000C3F30F2391B11361704700F0C002C02A0A
:1035D0000DD1C92B0BD8094B00F03F0253F8222024
:1035E000034B00F4E06053F82230D7E75361704793
:1035F0001441000810000020683E0008EC4000085C
:10360000C3B2222B1DD81A4A00F4E06052F82330CE
:103610001843431C26D010F0C00F25D1154BC0F322
:10362000031253F82230144A9B6800F00F0052F83E
:103630002020D84300EA122080B2B0FA80F040097E
:10364000704700F0C002C02A0CD1C92B0AD80B4B1E
:1036500000F03F0253F82220054B00F4E06053F8DD
:103660002230D5E70020704700239B68FFDE00BFB3
:103670001441000810000020683E0008EC400008DB
:1036800008B50320FEF784FABDE8084000F00AB848
:1036900008B5AFF30080FCF791FDFCF7A3FD00F047
:1036A00003F8FAE7FFF730BA08B5044B2BB104482A
:1036B00000F008F808B1AFF3008008BD000000007A
:1036C000B8030020B0F80831B0F80421981A00F0CF
:1036D0003F007047B0F80831B0F804219BB2934224
:1036E0001ABFD0F8FC30985C4FF0FF30704790F86C
:1036F0000631B0F80A01C0B2834227BFC3F13F03CD
:10370000C018C01A00F1FF30704707B503688DF884
:10371000071001225B680DF10701984703B05DF8BF
:1037200004FB0000B0F87610826F10B50A4402F076
:103730003F02A0F87620B0F87610B0F8722089B277
:103740008A421AD0B0F876404032A4B2B0F876106F
:10375000121B544289B204F03F0402F03F02C1F14F
:10376000400158BF62428A4228BF0A460449826724
:10377000FFF7BEFC4FF0FF3010BD0020FCE700BF9C
:10378000253700082DE9F843036804469B688846FE
:103790001646984701232374D4F8EC30B4F8067128
:1037A00001338146C7F1400709D194F8103133B194
:1037B000002304F1940084F81031FFF7B9FC23686A
:1037C00020469B6898470028F9D03546BD4225D849
:1037D0004D4523D8B4F80631D4F800015A19402ACF
:1037E000184430D82A46414600F074FA2F46B4F8FF
:1037F00006311D4405F03F05A4F8065104F1940577
:103800002846FFF763FC30B93A4628461549C4F804
:103810000C71FFF76DFC3046BDE8F8834F4528BFBB
:103820004F4623683A4641465B68204698472368DE
:1038300020469B689847ED1BB844B4F80671814652
:10384000C7F14007C2E7C3F140073A46414600F0DE
:1038500041FAD4F80001EA1B08EB070100F03AFA3C
:10386000C5E700BF25370008C0F8F030009B914243
:1038700008BF4FF0FF31C0F8F43000F11103C0F879
:10388000FC300023C0E93A2100F15102A0F80831D0
:10389000C0E94023A0F80A3170470000F7B54FF4A3
:1038A0007A7317460022C0E901231C4B04460360CB
:1038B0004FF0FF33C0F8EC30194B1A4E9C420D46C6
:1038C000F06A05D1B36AC4F8EC30C4F8E8000AE045
:1038D0001549FFF7FAFA854215D1B36AC4F8EC30FE
:1038E000F36AC4F8E8304FF0FF33012F08BFC4F883
:1038F000EC3000932046D4E93A214FF0FF33FFF734
:10390000B3FF03B0F0BD28460849FFF7EFFA0649B8
:10391000C4F8EC002846FFF7E9FAD6E7A84100080A
:10392000B803002014410008E83E0008B83E000833
:10393000037C70B504460D46A3B1FEF723F9064695
:10394000B4F80621B4F80A319BB29A420AD0002D8D
:10395000F8D0FEF717F9801B8542F1D8B4F80A3188
:10396000A4F8063170BD0021FFF7E2BFD0F8EC30BB
:1039700010B5013304460ED10368DB68984794F80C
:10398000103143B9012304F1940084F81031BDE8EB
:103990001040FFF7DBBB10BD10B50446FFF7E6FF94
:1039A000B4F80821B4F8043192B29A4217BFD4F89F
:1039B000FC204FF0FF30D05C01331CBF03F03F030D
:1039C000A4F8043110BD0000002202490248FFF7AC
:1039D00065BF00BF00380140B803002010B50446A1
:1039E00000F03AF8E060236820465B6998470028B9
:1039F00008DA00F031F8E368C01AA3689842F2D3FD
:103A00004FF0FF3010BDF8B507460D460C468E1836
:103A1000B44201D1601BF8BD3846FFF7DFFF431CFD
:103A2000F8D004F8010BF3E72DE9F041074688468A
:103A300016461D4673B100243846FFF7CFFF431CDE
:103A400005D0404503D030550134A542F4D120467D
:103A5000BDE8F0811C46FAE7FFF70AB8024B0146C1
:103A6000186800F02DB800BF2C000020024B014662
:103A7000186800F03DB900BF2C00002070B50F4E53
:103A80000C463168054611B9FCF700FC3060214650
:103A90002846FCF7FBFB431C03D14FF0FF342046C4
:103AA00070BDC41C24F00304A042F8D0211A28469B
:103AB000FCF7ECFB0130F2D1EFE700BFD0040020AF
:103AC0002DE9F843CD1C25F0030508350C2D38BF32
:103AD0000C25002D064601DBA94204D90C233360D6
:103AE0000020BDE8F883DFF8D480FCF70DFCD8F89F
:103AF00000301C4644BB29463046FFF7BFFF431C3D
:103B0000044658D1D8F800402746002F43D1002C56
:103B10004BD023683946304604EB0309FCF7B6FB6B
:103B2000814542D1216830466D1A2946FFF7A6FF2C
:103B300001303AD023682B442360D8F800305A680B
:103B400062BBC8F800700FE02268521B20D40B2A19
:103B500017D96119A342256018BF5960636808BF6F
:103B6000C8F8001062514B603046FCF7DBFB04F1F3
:103B70000B00231D20F00700C21A1CBF1B1AA35004
:103B8000AFE76268A3420CBFC8F800205A60EBE7B9
:103B900023466468AEE73C467F68B6E71A465B6832
:103BA000A342FBD100235360DEE70C233046336091
:103BB000FCF7B8FB94E70560D6E700BFD40400200B
:103BC00003460244934200D1704703F8011BF9E712
:103BD0002D4B70B51B680446834253D0C3691BB399
:103BE000DB6863B10025E369DB685959B1B9043575
:103BF000802DF8D1E3692046D96800F079F8E369AF
:103C0000196811B1204600F073F8E3699D685DB151
:103C1000294620462D6800F06BF8F8E70E6820462C
:103C200000F066F83146E1E7616911B1204600F025
:103C30005FF8E16911B1204600F05AF8216B11B12B
:103C4000204600F055F8616B11B1204600F050F8A5
:103C5000A16B11B1204600F04BF8A16C11B12046C8
:103C600000F046F8616C11B1204600F041F8E16ABD
:103C700011B1204600F03CF8236A1BB12046BDE894
:103C80007040184770BD00BF2C00002070B50026A2
:103C90000C4D0D4B5B1B9C10A64209D1002600F079
:103CA000BFF80A4D0A4B5B1B9C10A64205D170BDA4
:103CB00055F8043B98470136EEE755F8043B984722
:103CC0000136F2E7CC410008CC410008CC410008A5
:103CD000DC4100080A44914200F1FF3300D17047F3
:103CE00010B511F8014B914203F8014FF9D110BD05
:103CF00038B50546002940D051F8043C0C1F002B74
:103D0000B8BFE418FCF700FB1C4A136833B96360C2
:103D100014602846BDE83840FCF704BBA34208D92C
:103D2000206821188B4201BF19685B68091821605F
:103D3000EDE71A465B680BB1A342FAD91168501837
:103D4000A0420BD120680144501883421160E0D199
:103D500018685B68084410605360DAE702D90C23E6
:103D60002B60D6E7206821188B4201BF19685B6879
:103D70000918216063605460CBE738BDD40400208B
:103D8000062008B500F02CF80120FDF7A9FD1F2939
:103D900038B505460C4604D9162303604FF0FF30B2
:103DA00038BDC26B12B152F821304BB9284600F031
:103DB00031F8224601462846BDE8384000F018B8E0
:103DC000012B0AD0591C03D1162303600120E7E719
:103DD0000021204642F8241098470020E0E7000028
:103DE000024B01461868FFF7D2BF00BF2C0000202D
:103DF00038B50023064D0446084611462B60FDF7F2
:103E000071FD431C02D12B6803B1236038BD00BF94
:103E100010060020FDF76EBD08B5FFF7B1FF0000EA
:103E2000F8B500BFF8BC08BC9E467047F8B500BFA7
:083E3000F8BC08BC9E46704777
:103E38004C4544436F6E74726F6C0049444C4500A6
:103E4800546D725100546D72205376630001020262
:103E5800030405060708090A0B0C0D0E0F101000C5
:103E6800010100000202000004040000080800002C
:103E7800101000002020000040400000808000005A
:103E880001000104020002040400040408000804FC
:103E9800100010042000200440004004800080042A
:103EA80000000000000000000102030406070809E2
:103EB8000300000000440040100800000A00000051
:103EC80000380140100600001700000000380140CB
:103ED80010050000FFFFFFFF0000000000000000C9
:103EE8000200000000440040120800000900000021
:103EF800003801401206000016000000003801409A
:103F080012050000FFFFFFFF000000000000000096
:103F180000000000000000401280000000010000C6
:103F28000000004012900000010000000000004066
:103F380012120100010100000000004012100100EF
:103F4800020000000000004012920100020100007F
:103F58000000004012910100030000000000004032
:103F680012120200030100000000004012110200BA
:103F78000600000000040040129500000700000041
:103F8800002C0140128D10000701000000040040C1
:103F98001215010008000000002C0140128E0000DC
:103FA80008010000002C0140128D000009000000EB
:103FB800002C0140120E010009010000002C0140F4
:103FC800120D01000A000000002C0140128E0100B1
:103FD8000A010000002C0140128D01000B000000B6
:103FE800002C0140120E02000B010000002C0140C1
:103FF800120D02000F0000000000004012910000A6
:104008000F01000000000040128F000010000000A7
:10401800002C0140120D11001001000000040040A6
:1040280012950100100200000004004012940100E3
:1040380011000000002C0140128D11001101000038
:1040480000040040121502001102000000040040A4
:1040580012140200130000000000004012110100B9
:104068001301000000000040120F010014000000BE
:1040780000040040129400001500000000040040F5
:10408800121401001A000000000000401290010004
:104098001A01000000000040128F01001B00000000
:1040A80000000040121002001B0100000000004048
:1040B800120F02001D000000002C0140128E10009B
:1040C8001E000000002C0140120E11001F0000000D
:1040D800002C0140128E1100FFFFFFFF00000000BE
:1040E8000000000014000000150000001600000089
:1040F8001700000018000000190000001A00000056
:104108001B0000001C0000001D000000190000003A
:10411800180000001700000016000000150000003D
:1041280014000000130000000F0000000C00000045
:104138000B0000000A000000090000000800000051
:104148001F0000001E0000001D0000001C000000F1
:104158002D0000002E0000002F00000000000000CD
:10416800010000000200000003000000040000003D
:104178000500000006000000070000001000000015
:10418800110000001A0000001B00000012000000CF
:104198000D0000000E0000000000000000000000FC
:1041A8000B37000885370008EF3600086739000824
:1041B800C536000899390008D5360008073A0008BE
:0441C800293A000888
:1041CC00813600083501000815330008C93900088C
:0841DC0011010008ED33000899
:1041E40018060020AAAAAAAA0100000010000000D4
:1041F40000080140000C014000100140001401407F
:10420400003002400000000000127A00300000205C
:1042140000000000D804002040050020A80500206C
:10422400000000000000000000000000000000008A
:10423400000000000000000000000000000000007A
:10424400000000000000000000000000000000006A
:0C4254000000000000000000000000005E
:040000050800348536
:00000001FF
